:100000000C9461000C947E000C947E000C947E0095
:100010000C947E000C947E000C947E000C947E0068
:100020000C947E000C947E000C947E000C947E0058
:100030000C947E000C947E000C947E000C947E0048
:100040000C94AC030C947E000C947E000C947E0007
:100050000C947E000C947E000C947E000C947E0028
:100060000C947E000C947E00000000002400270009
:100070002A0000000000250028002B0000000000DE
:1000800023002600290004040404040404040202DA
:100090000202020203030303030301020408102007
:1000A0004080010204081020010204081020000012
:1000B0000008000201000003040700000000000027
:1000C000000011241FBECFEFD8E0DEBFCDBF11E08E
:1000D000A0E0B1E0E2E2F3E102C005900D92A634A7
:1000E000B107D9F721E0A6E4B1E001C01D92A53522
:1000F000B207E1F70E94F6030C948F090C940000FC
:10010000833081F028F4813099F08230A9F008958D
:100110008730A9F08830C9F08430B1F48091800034
:100120008F7D03C0809180008F7780938000089539
:1001300084B58F7784BD089584B58F7DFBCF809182
:10014000B0008F778093B00008958091B0008F7DCC
:10015000F9CFCF93DF93282F30E0F901E255FF4F1D
:100160008491F901E656FF4FD491F901EA57FF4F08
:10017000C491CC23A1F081110E948000EC2FF0E00B
:10018000EE0FFF1FE458FF4FA591B491EC91ED23C2
:1001900081E090E009F480E0DF91CF91089580E064
:1001A00090E0FACF1F93CF93DF93282F30E0F9012F
:1001B000E255FF4F8491F901E656FF4FD491F901C2
:1001C000EA57FF4FC491CC23A9F0162F81110E944A
:1001D0008000EC2FF0E0EE0FFF1FEE58FF4FA591CF
:1001E000B4918FB7F894EC91111108C0D095DE232B
:1001F000DC938FBFDF91CF911F910895DE2BF8CF55
:10020000CF93DF9390E0FC01E656FF4F24918A578D
:100210009F4FFC0184918823D1F090E0880F991FB3
:10022000FC01E859FF4FA591B491FC01EE58FF4F36
:10023000C591D491623071F49FB7F8943C91822FAC
:10024000809583238C93E8812E2B28839FBFDF9199
:10025000CF9108958FB7F894EC912E2B2C938FBFEC
:10026000F6CF3FB7F8948091510190915201A0913F
:100270005301B091540126B5A89B05C02F3F19F03A
:100280000196A11DB11D3FBFBA2FA92F982F882716
:10029000BC01CD01620F711D811D911D42E0660FF1
:1002A000771F881F991F4A95D1F708958F929F92C3
:1002B000AF92BF92CF92DF92EF92FF920E943101F4
:1002C0006B017C0192E0892E912CA12CB12C0E9413
:1002D00031016C197D098E099F09683E73408105C3
:1002E0009105A8F328EEC20E23E0D21EE11CF11CFA
:1002F0008A9489288A288B2829F0812C912C5401F2
:100300008394E5CFFF90EF90DF90CF90BF90AF90B8
:100310009F908F9008952FB7F89460914D01709140
:100320004E0180914F01909150012FBF08950F937E
:100330001F93CF93DF93082F162FD42FC8E06D2F74
:10034000661F6627661F802F0E94D200DD0F61E0C6
:10035000812F0E94D20060E0812F0E94D200C15004
:1003600071F7DF91CF911F910F910895109247017E
:1003700060E080E00E94D20040E062E081E00E9404
:10038000970161E080E00E94D2001092460160E097
:1003900083E00E94D20040E065E084E00E94970183
:1003A00061E083E00E94D2001092490160E086E0A3
:1003B0000E94D20040E068E087E00E94970161E07F
:1003C00086E00E94D2001092480160E089E00E941D
:1003D000D20040E06BE08AE00E94970161E089E092
:1003E0000C94D2004F925F926F927F928F929F9265
:1003F000AF92BF92CF92DF92EF92FF920F931F9333
:10040000CF93DF93EB01FA012AE030E0B9010E94BB
:1004100045095B016C01CE01B9010E9445097B01D0
:100420008C01CF01B9010E944509EB014C0160E04C
:1004300083E00E94D20041E065E084E00E949701E1
:1004400061E083E00E94D20087E08A9D90018B9D4D
:10045000300D1124B12C90E080E041E050E060E0EC
:1004600070E0FC01E20FF31FE050FF4FE081E1304C
:1004700059F42A013B01082E04C0440C551C661C8B
:10048000771C0A94D2F7B42801968730910549F772
:1004900060E080E00E94D2004B2D62E081E00E948B
:1004A000970161E080E00E94D2000E94560160E066
:1004B00083E00E94D20042E065E084E00E94970160
:1004C00061E083E00E94D20087E08C9D90018D9DC9
:1004D000300D1124D12C90E080E041E050E060E04C
:1004E00070E0FC01E20FF31FE050FF4FE081E130CC
:1004F00059F42A013B01082E04C0440C551C661C0B
:10050000771C0A94D2F7D42801968730910549F7D1
:1005100060E080E00E94D2004D2D62E081E00E9408
:10052000970161E080E00E94D2000E94560160E0E5
:1005300083E00E94D20044E065E084E00E949701DD
:1005400061E083E00E94D20087E08E9D90018F9D44
:10055000300D1124F12C90E080E041E050E060E0AB
:1005600070E0FC01E20FF31FE050FF4FE081E1304B
:1005700059F42A013B01082E04C0440C551C661C8A
:10058000771C0A94D2F7F42801968730910549F731
:1005900060E080E00E94D2004F2D62E081E00E9486
:1005A000970161E080E00E94D2000E94560160E065
:1005B00083E00E94D20048E065E084E00E94970159
:1005C00061E083E00E94D20087E0809F9001819FDC
:1005D000300D112410E090E080E041E050E060E058
:1005E00070E0FC01E20FF31FE050FF4FE081E130CB
:1005F00059F46A017B01082E04C0CC0CDD1CEE1CF2
:10060000FF1C0A94D2F71C2901968730910549F7FF
:1006100060E080E00E94D200412F62E081E00E9411
:10062000970161E080E00E94D2000E94560160E0E4
:1006300083E00E94D20040E165E084E00E949701DF
:1006400061E083E00E94D20087E08C9F90018D9F43
:10065000300D1124C0E090E080E041E050E060E027
:1006600070E0FC01E20FF31FE050FF4FE081E1304A
:1006700059F46A017B01082E04C0CC0CDD1CEE1C71
:10068000FF1C0A94D2F7CC2901968730910549F7CF
:1006900060E080E00E94D2004C2F62E081E00E9486
:1006A000970161E080E00E94D2000E94560180E242
:1006B0008093460160E083E00E94D20040E265E062
:1006C00084E00E94970161E083E00E94D20087E00D
:1006D000889D9001899D300D1124C0E090E080E05C
:1006E00041E050E060E070E0FC01E20FF31FE050F9
:1006F000FF4FE081E13059F46A017B01082E04C00C
:10070000CC0CDD1CEE1CFF1C0A94D2F7CC29019600
:100710008730910549F7C093470160E080E00E946F
:10072000D2004C2F62E081E00E94970161E080E0FE
:100730000E94D200DF91CF911F910F91FF90EF9017
:10074000DF90CF90BF90AF909F908F907F906F90F1
:100750005F904F900C9456011F920F920FB60F921C
:1007600011242F933F938F939F93AF93BF938091C7
:100770004D0190914E01A0914F01B09150013091E7
:100780004C0123E0230F2D3758F50196A11DB11D13
:1007900020934C0180934D0190934E01A0934F0103
:1007A000B09350018091510190915201A091530159
:1007B000B09154010196A11DB11D809351019093F8
:1007C0005201A0935301B0935401BF91AF919F91F7
:1007D0008F913F912F910F900FBE0F901F90189502
:1007E00026E8230F0296A11DB11DD2CFCF93DF9330
:1007F000CDB7DEB760970FB6F894DEBF0FBECDBFA2
:10080000789484B5826084BD84B5816084BD85B5EB
:10081000826085BD85B5816085BD80916E008160F7
:1008200080936E001092810080918100826080939D
:10083000810080918100816080938100809180009F
:100840008160809380008091B10084608093B100CA
:100850008091B00081608093B00080917A008460C4
:1008600080937A0080917A00826080937A008091F0
:100870007A00816080937A0080917A00806880930A
:100880007A001092C10061E082E00E94000161E004
:1008900081E00E94000161E080E00E94000161E0CF
:1008A00085E00E94000161E084E00E94000161E0B7
:1008B00083E00E94000161E088E00E94000161E0A5
:1008C00087E00E94000161E086E00E94000161E093
:1008D0008BE00E94000161E08AE00E94000161E07B
:1008E00089E00E94000162E08EE00E94000162E067
:1008F0008FE00E94000162E080E10E94000122245A
:100900002394312C02E014E28EE00E94A900892B8E
:1009100021F410924B0110924A018FE00E94A9002D
:10092000892B21F430924B0120924A0180E10E94F0
:10093000A900892B31F422E030E030934B01209361
:100940004A0180914A0190914B018130910509F44F
:100950001DC48230910509F41CC4892B09F090C490
:100960000E948B012B013C01DC01CB0180579D4192
:10097000AF4FBF4F8D839E83AF83B887A301920192
:10098000285F3D4A4F4F5F4F29873A874B875C87E7
:10099000D301C201805B994BAF4FBF4F8D879E87BC
:1009A000AF87B88B0E948B014616570668067906FA
:1009B00009F48EC00E948B01641975098609970994
:1009C000603576448105910508F082C08FE00E9471
:1009D000A900019709F07CC080E10E94A90001975D
:1009E00009F076C0B1E2B093490160E086E00E9470
:1009F000D20041E268E087E00E94970161E086E072
:100A00000E94D20024E02093480160E089E00E9427
:100A1000D20044E06BE08AE00E94970161E089E047
:100A20000E94D2000E948B014B015C010E948B014D
:100A30006B017C010E948B0169837A838B839C8389
:100A40006D817E818F819885681979098A099B0952
:100A500028EE33E040E050E00E94590949016985E1
:100A60007A858B859C856C197D098E099F0928EEF6
:100A700033E040E050E00E94590969016D857E85B0
:100A80008F85988929813A814B815C81621B730B28
:100A9000840B950B28EE33E040E050E00E945909AA
:100AA000C901A401B6010E94F2018FE00E94A900D1
:100AB000892B31F080E10E94A900892B09F072CFC7
:100AC000A0E0B0E0AB2B09F41FCF0E9400001BCFC9
:100AD000D301C201885F9D4AAF4FBF4F89839A837C
:100AE000AB83BC83A301920120573D414F4F5F4F21
:100AF00029873A874B875C870E948B0164197509A7
:100B000086099709613576448105910508F488C006
:100B10000E948B016419750986099709683072452E
:100B20008105910508F07CC08FE00E94A900019723
:100B300009F076C080E10E94A900019709F070C019
:100B400052E25093490160E086E00E94D20042E206
:100B500068E087E00E94970161E086E00E94D20091
:100B600084E08093480160E089E00E94D20044E084
:100B70006BE08AE00E94970161E089E00E94D20068
:100B80000E948B014B015C010E948B016B017C0177
:100B90000E948B016D837E838F83988769857A8518
:100BA0008B859C85681979098A099B0928EE33E0B1
:100BB00040E050E00E945909490169817A818B81A6
:100BC0009C816C197D098E099F0928EE33E040E075
:100BD00050E00E945909690169817A818B819C8169
:100BE0002D813E814F815885621B730B840B950BC1
:100BF00028EE33E040E050E00E945909C901A40109
:100C0000B6010E94F2018FE00E94A900892B09F42D
:100C100057CF80E10E94A900892B09F06DCF50CFFA
:100C2000D301C20180579D41AF4FBF4F8D839E833B
:100C3000AF83B887A3019201285239424F4F5F4FCB
:100C400029873A874B875C87D301C201885C9B4B1D
:100C5000AE4FBF4F8D879E87AF87B88B0E948B01A9
:100C600064197509860997096930724581059105EE
:100C700008F488C00E948B016419750986099709D8
:100C8000683D764D8105910508F07CC08FE00E949B
:100C9000A900019709F076C080E10E94A9000197A0
:100CA00009F070C02CE02093490160E086E00E94CA
:100CB000D2004CE068E087E00E94970161E086E0A6
:100CC0000E94D20034E03093480160E089E00E9445
:100CD000D20044E06BE08AE00E94970161E089E085
:100CE0000E94D2000E948B014B015C010E948B018B
:100CF0006B017C010E948B0169837A838B839C83C7
:100D00006D817E818F819885681979098A099B098F
:100D100028EE33E040E050E00E945909490169851E
:100D20007A858B859C856C197D098E099F0928EE33
:100D300033E040E050E00E94590969016D857E85ED
:100D40008F85988929813A814B815C81621B730B65
:100D5000840B950B28EE33E040E050E00E945909E7
:100D6000C901A401B6010E94F2018FE00E94A9000E
:100D7000892B09F4A5CE80E10E94A900892B09F0F6
:100D80006DCF9ECED301C20180579D41AF4FBF4F63
:100D900089839A83AB83BC83A3019201285C3B4B7C
:100DA0004E4F5F4F29873A874B875C870E948B01A4
:100DB0006419750986099709693D764D8105910584
:100DC00008F488C00E948B01641975098609970987
:100DD0006039724E8105910508F07CC08FE00E9459
:100DE000A900019709F076C080E10E94A90001974F
:100DF00009F070C054E15093490160E086E00E9420
:100E0000D20044E168E087E00E94970161E086E05B
:100E10000E94D20084E08093480160E089E00E9453
:100E2000D20044E06BE08AE00E94970161E089E033
:100E30000E94D2000E948B014B015C010E948B0139
:100E40006B017C010E948B016D837E838F83988769
:100E500069817A818B819C81681979098A099B094A
:100E600028EE33E040E050E00E94590949016981D1
:100E70007A818B819C816C197D098E099F0928EEEE
:100E800033E040E050E00E945909690169857A85A4
:100E90008B859C852D813E814F815885621B730B0C
:100EA000840B950B28EE33E040E050E00E94590996
:100EB000C901A401B6010E94F2018FE00E94A900BD
:100EC000892B09F4FDCD80E10E94A900892B09F04E
:100ED0006DCFF6CDD301C2018058974CAE4FBF4FB6
:100EE0008D839E83AF83B887A3019201205C39462E
:100EF0004E4F5F4F29873A874B875C87D301C201EA
:100F0000885C9B4BAE4FBF4F8D879E87AF87B88B5A
:100F10000E948B0164197509860997096139724E1F
:100F20008105910508F487C00E948B016419750939
:100F300086099709603878438140910508F07BC0A5
:100F40008FE00E94A900019709F075C080E10E941E
:100F5000A900019709F06FC01093490160E086E095
:100F60000E94D20044E268E087E00E94970161E0BD
:100F700086E00E94D20081E08093480160E089E031
:100F80000E94D20041E06BE08AE00E94970161E09C
:100F900089E00E94D2000E948B014B015C010E94FB
:100FA0008B016B017C010E948B0169837A838B83A7
:100FB0009C836D817E818F819885681979098A0962
:100FC0009B0928EE33E040E050E00E9459094901B6
:100FD00069857A858B859C856C197D098E099F09A9
:100FE00028EE33E040E050E00E94590969016D8528
:100FF0007E858F85988929813A814B815C81621B2E
:10100000730B840B950B28EE33E040E050E00E9418
:101010005909C901A401B6010E94F2018FE00E94A2
:10102000A900892B09F44CCD80E10E94A900892BED
:1010300009F06ECF45CD7301620138E3C30E34E48D
:10104000D31E31E0E31EF11CD301C201805C99463E
:10105000AE4FBF4F89879A87AB87BC870E948B01B1
:1010600064197509860997096138784381409105AB
:1010700008F426CD0E948B01641975098609970929
:10108000683374448140910508F01ACD8FE00E94C6
:10109000A900019709F014CD80E10E94A9000197F1
:1010A00009F00ECD1093490160E086E00E94D20065
:1010B00044E268E087E00E94970161E086E00E94D8
:1010C000D2000093480160E089E00E94D20042E033
:1010D0006BE08AE00E94970161E089E00E94D20003
:1010E0000E948B0169837A838B839C830E948B018E
:1010F0004B015C010E948B016D837E838F839887F7
:10110000C701B60129813A814B815C81621B730B57
:10111000840B950B28EE33E040E050E00E94590923
:1011200029833A834B835C8369857A858B859C858B
:10113000681979098A099B0928EE33E040E050E0FC
:101140000E9459094901C701B6012D813E814F8195
:101150005885621B730B840B950B28EE33E040E03F
:1011600050E00E945909C90149815A81B4010E9485
:10117000F2018FE00E94A900892B09F4A1CC80E143
:101180000E94A900892B09F069CF9ACC0E94B60170
:1011900097CC0E948B016B017C010E94B6011982E1
:1011A0008FE00E94A900019709F08ACC8EE00E948E
:1011B000A900019709F084CC0E948B014B015C01CE
:1011C000DC01CB018C199D09AE09BF098C3291401D
:1011D000A105B10530F14981411130C052E1509370
:1011E000490160E086E00E94D20042E168E087E0C9
:1011F0000E94970161E086E00E94D20000934801BE
:1012000060E089E00E94D20042E06BE08AE00E9448
:10121000970161E089E00E94D2007501640181E0DC
:1012200089838EE00E94A900892B09F449CC8FE0C4
:101230000E94A900892B09F0B3CF42CC109249013A
:1012400060E086E00E94D20040E068E087E00E9413
:10125000970161E086E00E94D2001092480160E0B0
:1012600089E00E94D20040E06BE08AE00E94970192
:1012700061E089E00E94D200750164011982D1CF3A
:1012800010924B0110924A011BCC97FB072E16F4CB
:10129000009407D077FD09D00E947B0907FC05D098
:1012A0003EF4909581959F4F0895709561957F4F7D
:1012B0000895A1E21A2EAA1BBB1BFD010DC0AA1F97
:1012C000BB1FEE1FFF1FA217B307E407F50720F0AF
:1012D000A21BB30BE40BF50B661F771F881F991F2A
:1012E0001A9469F760957095809590959B01AC0173
:1012F000BD01CF010895AA1BBB1B51E107C0AA1F66
:10130000BB1FA617B70710F0A61BB70B881F991FA6
:101310005A95A9F780959095BC01CD010895F89450
:02132000FFCFFD
:1013220000000000000001010000010101010000B5
:1013320001000001000000000001010001000001A5
:101342000100000001000001000000010000000097
:101352000000000001010101000000000000000087
:0613620000000001000084
:00000001FF
